:020000040800F2
:10000000B80F00209D0100087F3F0008F93100086B
:100010007D3F00087D050008635C000800000000CB
:100020000000000000000000000000007143000814
:10003000A506000800000000AD3F0008734300085B
:10004000B7010008B7010008B7010008B7010008B0
:10005000B7010008B7010008A9060008B7010008A9
:10006000C5060008E1060008B7010008B70100084E
:10007000B7010008B7010008B7010008B701000880
:10008000B7010008B7010008B7010008B701000870
:10009000B7010008B7010008B7010008FD06000815
:1000A000B7010008B7010008B7010008B701000850
:1000B000B7010008B7010008B7010008B701000840
:1000C000B7010008B7010008B7010008B701000830
:1000D000B7010008B7010008B7010008B701000820
:1000E000B7010008B7010008B7010008B701000810
:1000F000B7010008B7010008B7010008B701000800
:10010000B7010008B7010008B7010008B7010008EF
:10011000B7010008B7010008B7010008B7010008DF
:10012000B7010008B7010008B7010008B7010008CF
:10013000B7010008B7010008B7010008B7010008BF
:10014000B7010008B7010008B7010008A13F000887
:10015000B7010008B7010008B7010008B70100089F
:10016000B7010008B7010008B7010008B70100088F
:10017000B7010008B7010008B7010008000000003F
:10018000B7010008B7010008DFF80CD000F0B0F9A3
:1001900000480047D55C0008B80F0020064880479B
:1001A00006480047FEE7FEE7FEE7FEE7FEE7FEE75C
:1001B000FEE7FEE7FEE7FEE7554400088901000878
:1001C0002DE9F05F0546002092469B46884606468C
:1001D000814640241BE0284641464746224600F01F
:1001E000E2F853465A46C01A914110D311461846B8
:1001F000224600F0C9F82D1A67EB01084F46224647
:100200000120002100F0C0F817EB00094E41201E2C
:10021000A4F10104DFDC484631462A46434600F09B
:1002200000B830BCBDE8C09F40EA01039B0703D083
:1002300009E008C9121F08C0042AFAD203E011F825
:10024000013B00F8013B521EF9D270472DE9FE4FE9
:1002500081EA030404F0004421F0004100944FF0CF
:10026000000B23F0004350EA01045ED052EA03047D
:100270005BD0C3F30A54C1F30A552C44A4F2F334FF
:100280000194A0FB0254C1F3130141F48011C3F3A4
:10029000130343F4801301FB024400FB034E840A62
:1002A000970A44EA815447EA8357A4FB07680295FA
:1002B0008D0A05FB07854FEA932C04FB0C54270598
:1002C000029D4FEA065847EA1637B5EB08056EEB74
:1002D000070C870E920E47EA811742EA8312A7FBAA
:1002E0000201B6EB0B0164EB00042B0D43EA0C3367
:1002F0005E1844EB1C50DA465146E7FB0201C5F399
:1003000013044FEA0B3343EA14534FEA0432019CBF
:1003100043EA0603A4F10C040294009CCDE900B466
:1003200000F097F803B000F003B800200146F9E7A9
:1003300030BCBDE8C08F0EB540F2334102910021C0
:10034000CDE900110A460B4600F083F803B000BD6A
:1003500001F0004330B421F0004150EA010206D020
:100360000A0DA2F56072C1F31301002A02DC30BC51
:1003700000207047440F44EAC104C100E01830BCBB
:1003800000EBC25000F01FB8202A04DB203A00FA2C
:1003900002F1002070479140C2F1200320FA03F3DC
:1003A000194390407047202A04DB203A21FA02F0DA
:1003B0000021704721FA02F3D040C2F1200291409F
:1003C0000843194670470029A8BF7047401C4900E0
:1003D00008BF20F00100704710B4B0FA80FC00FAAA
:1003E0000CF050EA010404BF10BC704749B1CCF1D5
:1003F000200421FA04F411FA0CF118BF0121214361
:100400000843A3EB0C01CB1D4FEA00614FEA10201B
:1004100042BF002010BC704700EBC35010440029BD
:10042000A4BF10BC7047401C490008BF20F0010069
:1004300010BC704710B5141E73F1000408DA401C9C
:1004400041F1000192185B411A4301D120F00100F3
:1004500010BD2DE9F04D92469B4611B1B1FA81F2E3
:1004600002E0B0FA80F220329046FFF78DFF04469A
:100470000F4640EA0A0041EA0B0153465A46084338
:1004800013D0114653EA010019D0C8F1400250467A
:10049000FFF789FF05460E46504659464246FFF78C
:1004A00073FF084305D0012004E020463946BDE82B
:1004B000F08D0020054346EAE0762C4337430A9846
:1004C0006305E40AA0EB08000022FD0A44EA475451
:1004D0000A3002D500200146E9E7010510196941FB
:1004E000DDE9084500196941BDE8F04DA2E70000CB
:1004F000064C074D06E0E06840F0010394E8070071
:1005000098471034AC42F6D3FFF742FE246100084E
:100510004461000870B504460068816811F0010F5D
:1005200028D18168144A114215D18168D5432940E8
:10053000491C816000F076FE064616E0816811F0E5
:10054000010F03D181682940491C816000F06AFED7
:10055000801B022809D9606D40F010006065A06D15
:1005600040F00100A065012070BD20680168C9430A
:10057000C907E3D1002070BD3F000080FEE7000006
:1005800070B50546D0F87803C46994F84E00032886
:100590001BD0042818D1217B284604F0FEFD012839
:1005A00012D1217B284604F0E3FDA16A814214D0D8
:1005B000628B824211D2091AA162216A0844206228
:1005C0005FF0030084F84E0070BD237B628B2846E9
:1005D000216A04F08FF90420F4E7002084F84E002B
:1005E000284604F0E3FA70BDF8B50646D0F8780363
:1005F0000125C46994F84D0001280AD0022807D1CA
:10060000617B304604F0C9FD012811D002281AD0C0
:10061000F8BD228B606A0095637B904200D882B25D
:100620003046E16904F076F9022084F84D00F8BD07
:10063000208B626A0021824208D9121A6262E36941
:100640001844E06103D084F84D50F8BD616284F82D
:100650004D10304604F0ADFAF8BD000010B5002290
:100660004FEA020100EB8203521CC3F880130F2AE9
:10067000F8D300224FF400738418521C84F81C1124
:100680009A42F9D30170417001228270C0F8BC1304
:10069000027640238371417680F81C1380F81D2375
:1006A000002010BD7047000010B5012000F0C4FC10
:1006B00003480168002901D00A39016010BD00001B
:1006C0000000002010B5042000F0B6FC03480168CB
:1006D000322901D20A31016010BD00000000002063
:1006E00010B5082000F0A8FC03480168322901D2A7
:1006F000491C016010BD00000000002010B5202042
:1007000000F09AFC03480168002901D0491E0160ED
:1007100010BD000000000020A122027421224274BA
:100720000022428282820722C28204F066BA00005E
:100730002DE9F047044690F850009AB00D464FF06E
:100740000008012813D0012084F85000304E2068A2
:100750004FF00009B0420ED12E4F0097384603F0FB
:100760009AF98246206803F096F960B10EE0022003
:100770001AB0BDE8F087616D41F02001616584F831
:1007800050900120F4E7BAF1000F09D0606D40F0FD
:10079000200060654FF0010884F850904046E7E77C
:1007A0001D4829681D4A0029816840F61F7321F4FD
:1007B00060411BD094F830C041EA4C31D5F804C0F8
:1007C00041EA0C018160B168BE6801F0010106F0E8
:1007D00001069268314302F001021143DCD1AA689C
:1007E0002968114382689A4311430EE08160B16821
:1007F000BD6801F0010105F001059268294302F08E
:1008000001021143C8D1816899438160C4E70000A7
:100810000000045000010450000304500002045082
:100820002DE9F84F00270446009790F85000DFF8B4
:10083000B8930D46B846012811D0012684F85060BF
:10084000206803F024F960B1606D40F0200060651D
:100850005FF0010784F85080384600F0DDB90220CF
:10086000FBE768680C23052812D8022807D0032864
:1008700007D0042807D0052807D0062007E06B60C2
:1008800006E0122003E0182001E04FF48070686059
:10089000D5E9002103EA9113206801F01F011844F3
:1008A0004FF01F0C0CFA01FC036BC2F3846223EAC5
:1008B0000C038A4013430363206803F0E8F8824680
:1008C000206803F0E0F85AEA00001DD1AA68296800
:1008D000206803F0ECF820686969C268C2F3C102BD
:1008E000520091402A69042A0FD000EB82002B6845
:1008F000DFF8F8C2026E03F0F84302EA0C020B4381
:100900001A4342F00041016672E0002103F0B5F89D
:10091000400320684FF0000172D003F0AEF890FA67
:10092000A0F0B0FA80F1286842036ED090FAA0F0EF
:10093000B0FA80F0814204D100221146206803F011
:10094000C5F80121206803F098F8400320684FF0B3
:1009500001015DD003F091F890FAA0F0B0FA80F1B7
:100960002868420359D090FAA0F0B0FA80F0814292
:1009700004D100220121206803F0A8F80221206898
:1009800003F07BF8400320684FF0020148D003F0E9
:1009900074F890FAA0F0B0FA80F12868420344D0CD
:1009A00090FAA0F0B0FA80F0814204D10022022136
:1009B000206803F08BF80321206803F05EF8400301
:1009C00020684FF0030133D003F057F890FAA0F0FD
:1009D000B0FA80F1286842032FD090FAA0F0B0FA64
:1009E00080F0814204D100220321206803F06EF8D8
:1009F0002068816811F0010F22D0ACE000E004E033
:100A000003F03BF8C0F384618DE7C0F3846091E7A5
:100A100003F033F8C0F38461A2E7C0F38460A6E773
:100A200003F02BF8C0F38461B7E7C0F38460BBE741
:100A300003F023F8C0F38461CCE7C0F38460D0E70F
:100A40002A7B296850F8B03FC1F3120C23EA0C034B
:100A500002F0180C664A22FA0CF20A4013430360B3
:100A6000E968494577D1286841031CD090FAA0F184
:100A7000B1FA81F1491C01F01F0109294FEA403107
:100A800032D8002912D000BF90FAA0F1B1FA81F15A
:100A900001F1010101F01F0106FA01F609D100BFC1
:100AA000C0F3846109E0C0F38461E3E7C0F38461CB
:100AB000EEE790FAA0F1B1FA81F101F1010101F044
:100AC0001F0146EA816102D1C0F3846003E090FA1D
:100AD000A0F0B0FA80F000F1010000F01F0000EB80
:100AE000400041EA005132E000290ED090FAA0F116
:100AF000B1FA81F101F1010101F01F0106FA01F6DD
:100B000006D100BFC0F3846106E0C0F38461F1E761
:100B100090FAA0F1B1FA81F101F1010101F01F0198
:100B200046EA816102D1C0F3846003E090FAA0F04C
:100B3000B0FA80F000F1010000F01F002D4A00EB38
:100B4000400002EB005041EA000141F00071AA6848
:100B5000206802F0ACFF28482A6802423FF47AAECF
:100B600026488168264E274B274D01F0E071B2429E
:100B70001CD10E021AD422689A4202D0AA427FF4F3
:100B800069AE826841F4000122F0E0720A4382609B
:100B90001E481F490068B0FBF1F000EB40008000E8
:100BA00000E0401E00900028FBD153E6194EB242EF
:100BB00009D1CE0107D422689A4201D0AA42F4D1C9
:100BC00041F080710AE06FF00045EA42EDD14A023F
:100BD000EBD422689A42E8D141F48001826822F085
:100BE000E0720A43826035E600007F4000F0FF03B8
:100BF000FFFF0700000020FE0000088000030450F3
:100C0000000052C700000450000204501C000020E5
:100C1000400D0300000084CB18BCBDE8E08F0068E5
:100C2000006C7047F8B54FF0000504002E460095A3
:100C300002D0606D10B107E00120F8BD204600F041
:100C4000D5F8A66584F8506020688168C1F34071CA
:100C500019B181685B4A1140816020688168C1F3E5
:100C6000007179B98168584A114041F08051816022
:100C7000564857490068B0FBF1F000E0401E009074
:100C80000028FBD120688168C1F3007141B9616D12
:100C900041F010016165A16D41F00101A1650125DF
:100CA00002F0F5FE616DC90600D430B1606D40F010
:100CB0001000606501252846F8BD606D20F4807045
:100CC00040F0020060652068806810F0010F15D1C7
:100CD00040488068404900F00100896801F0010146
:100CE00008433E49896801F00101084306D13C49A7
:100CF00060688A6822F47C1202438A60E168606B53
:100D0000627E0843A16841EA4231084394F820100A
:100D100040EA0140012904D1A18C324A02EB414151
:100D20000843A16A29B101F47071E26A014342EA01
:100D300001002268D1682C4B19400143D160206822
:100D400002F0A5FE0646206802F09DFE304315D154
:100D5000207E94F830102268800340EA4101D06878
:100D600044F2020398430843D06094F83800012805
:100D70000CD02068016921F001010161206901287E
:100D80002068016B21F00F0111D013E0D4E90F01AD
:100D90000843D4E911121143084321680A6940F25B
:100DA000FC739A43104340F001000861E6E7E269F2
:100DB000521E11430163606D20F0020040F00100FB
:100DC000606578E7C0FFFF5FC0FFFF7F1C00002069
:100DD000400D0300000004500001045000020450C4
:100DE000000304500000FEFF07C0F0FF00B50068DC
:100DF0000C4987B0884213D10B48C16C41F40051B3
:100E0000C164C06C694600F4005005900220009057
:100E10000B200190002002904FF0904000F018F954
:100E200007B000BD00000450001002402DE9F04161
:100E3000044639480F46816801F01F056169082999
:100E40000FD085B1052D0ED0092D0CD0806800F48F
:100E5000604060B1606D40F0200060650120BDE839
:100E6000F081082604E02068C068C007F1E7042686
:100E700000F0D8F9804608E0781C06D000F0D2F9DE
:100E8000A0EB0800B8420FD877B120680068304264
:100E9000F2D0606D40F400706065206802F0FFFDE4
:100EA000D0B1607E48B117E0606D40F0040060652D
:100EB000002084F850000320D1E720680068000774
:100EC0000AD5606D20F480706065606DC00403D445
:100ED000606D40F001006065104A20681049904242
:100EE00001D10B4600E00346834210D07DB1052DB1
:100EF0000DD0092D0BD0904200D00146C968082EB4
:100F000007D0490401D40C2101600020A7E7C16883
:100F1000F5E70821F8E70000000304500001045041
:100F2000000004502DE9F04104463748806800F085
:100F30001F05206802F0ABFD18B102210846BDE88C
:100F4000F08194F8500001280CD0012084F8500062
:100F50002046FFF7DFFA01004FF0000304D084F8C9
:100F60005030EBE70220EAE7606D40F60162904303
:100F700040F480706065254A2068254E904201D17A
:100F8000374600E00746874200D01DB9676D27F459
:100F900080176765676DFF0404D5A76D27F0060706
:100FA000A76500E0A3651C27076084F8503020681F
:100FB000904201D1334600E00346834215D0A5B1EB
:100FC000052D12D0092D10D0636D43F48013636595
:100FD000904200D13046C0688001AFD5606D20F4EA
:100FE000005040F480506065A8E7C268920105D5C2
:100FF000626D22F4005242F4805262658268054BB1
:101000001A40121D826099E7000304500001045049
:1010100000000450C0FFFF7F70B5044600F002F9E5
:101020000546601C00D0641C00F0FCF8401BA04288
:10103000FAD370BD70470000044910B50A68024237
:1010400002D00860FFF7F6FF10BD00001404014055
:101050002DE9F84FDFF898B100234FF0010C4FF065
:10106000030A4FF00F090BF1040EB9E00CFA03F478
:10107000224070D04D68022D01D0122D0ED1DD0816
:1010800000EB8508D8F820505E07F70E09FA07F63E
:10109000B5430E69BE402E43C8F8206007685E0065
:1010A00091F804800AFA06F508F00308AF4308FA3D
:1010B00006F848EA0708C0F800804F68012F05D0FD
:1010C000022F03D0112F01D0122F13D1D0F8088096
:1010D000CF6828EA0508B74047EA08078760D0F8D4
:1010E00004800F7928EA0408C7F300179F4047EAF5
:1010F00008074760D1F804806FEA0807BF0706D1E8
:10110000C76AA743C8F3C0049C403C43C462C46898
:10111000AC438D68B5402543C5604C68E4005ED59E
:10112000344C256E45F001052566246E23F0030539
:1011300004F001040094304C2E19B4689D072F0F61
:1011400009FA07F5AC43B0F1904F05D02B4DA842FA
:1011500004D101251CE042E0002519E0284DA842F9
:1011600001D1022514E0274DA84201D103250FE04B
:10117000254DA84201D104250AE0244DA84201D101
:10118000052505E0224DA84201D1062500E00725EE
:10119000BD402543B560DBF800405D464E68944392
:1011A000F60300D514432C60DEF8004075464E6807
:1011B0009443B60300D514432C600D4D08352C68BC
:1011C0004E689443F60200D514432C60084D0C354C
:1011D0002C684E689443B60200D514432C605B1C07
:1011E0000A6832FA03F57FF441AF00F013B800004B
:1011F00000040140001002400000014000040048CB
:1012000000080048000C0048001000480014004886
:101210000018004818BCBDE8E08F0AB18161704732
:101220008162704701480068704700001800002084
:10123000D0F8C00203F05EBFD0F8C00203F06FBF69
:10124000006804F099BA006804F09ABA01EB8101D1
:1012500000EBC10090F85C00704701EB810100EBEE
:10126000C100C06C704710B5044690F8B802012860
:1012700009D0012084F8B802206804F08CFA00201C
:1012800084F8B80210BD022010BD2DE9FE430546CA
:10129000DDE90B7095F8B842DDF828C0012C1CD0B0
:1012A00001EB81044FF0010905EBC40485F8B89205
:1012B000002684F83D6084F83830A4F8400084F8B3
:1012C000391084F83F7002F07F0884F83A805FEAB2
:1012D000026805D584F83B9004E0022000F00EB8C7
:1012E00084F83B6084F83CC0CDF800C0CDE90170C3
:1012F000286804F0B1FA85F8B862EFE706BCBDE8EB
:10130000F88370472DE9F04101EB8104DDE907E73F
:1013100000EBC404DDF818C084F83B20022684F8F2
:101320003F30BCF1000F0AD084F84260002553B171
:10133000012B2AD0022B0FD0032B13D10CE0032555
:1013400084F84250F2E7BCF1010F0BD152B9CFB98A
:10135000012284F8512003E0A2B194F85020A2B1F8
:1013600084F84260C4E911E784F85C50E56484F8CD
:10137000391084F85D5004F138010068BDE8F0418F
:1013800004F0DABA94F85120E9E784F84250E9E72A
:101390002DE9F04104460068064604F0F8F90128FA
:1013A0006FD1206804F0CBFB00286AD0206804F0DD
:1013B000C6FB800203D521684FF400104861206805
:1013C00004F0BDFBC00203D521684FF480104861D2
:1013D000206804F0B4FB400103D521684FF0806021
:1013E0004861206804F0ABFB800702D52168022029
:1013F0004861206804F0A3FB800010D5D6F84004B3
:1014000020F02E00C6F840042046FFF715FF01210A
:10141000206804F079FB21684FF000504861206893
:1014200004F08DFBC00102D5204601F050FE20687B
:1014300004F085FB000705D5204600F0C2F82168BE
:1014400008204861206804F07AFB800124D52068D8
:1014500004F06EFA074600254FF0010815E000BFC2
:1014600005F00F0108FA01F038420DD006EB4510E7
:10147000D0F80005E9B20004204603D501F0EEFBE8
:1014800002E01CE001F003FD6D1CA068A842E7D853
:1014900021684FF000704861206804F050FBC043A1
:1014A000C0060CD42068816921F0100181612046BA
:1014B00001F06AFE2068816941F010018161BDE898
:1014C000F08130B58BB0040003D094F8B90218B1A4
:1014D00008E001200BB030BD002084F8B80220469F
:1014E00000F024F8032084F8B902206804F000F921
:1014F00004F1100128220D466846FEF795FE94E897
:101500000F0004F0AFF80121206804F043FB28220B
:1015100029466846FEF788FE94E80F0004F090FA2A
:10152000012084F8B9020020D4E7000010B500685B
:1015300086B0B0F1A04F34D14FF4C05000900220DB
:10154000019000200290032003900A200490694635
:101550004FF09040FFF77CFD134CE06C40F480505E
:10156000E064E06C00F480500590A06DC0000ED4E3
:10157000A06D40F08050A065A06D00F080500590F7
:1015800000F01AFAA06D20F08050A06501E000F094
:1015900013FA00221146432000F0A8F9432000F07E
:1015A00099F906B010BD000000100240D0F8C0024A
:1015B00003F04FBED0F8C00203F04FBE006804F045
:1015C000D0BAD0F8C00203F0ECBD10B5044690F8D4
:1015D000B80201280DD0012084F8B802206804F078
:1015E000A3F80121206804F089F8002084F8B802EB
:1015F00010BD022010BD10B5044690F8B8020128B5
:1016000009D0012084F8B802206804F0DBFA002039
:1016100084F8B80210BD022010BD90F84120202AA5
:1016200024D190F84020012A20D0012280F84020C7
:10163000242280F841200268136823F0010313601C
:101640000268136823F480531360026813680B4325
:10165000136001680A6842F001020A60202180F8E4
:101660004110002180F84010084670470220704762
:1016700090F84120202A22D190F84020012A1ED043
:10168000012280F84020242280F84120026813685B
:1016900023F0010313600268136823F4706343EAC4
:1016A0000121116001680A6842F001020A602021EC
:1016B00080F84110002180F8401008467047022051
:1016C0007047000070B5040004D094F84100002574
:1016D00010B106E0012070BD84F84050204600F0B3
:1016E0004DF8242084F841002068016821F00101B0
:1016F00001606068216820F070600861206881687E
:1017000021F400418160E0680128A06807D040F41E
:10171000044021688860E068022803D006E040F4B5
:101720000040F6E721684FF4006048602068416897
:10173000114A114341602068C16821F40041C16031
:10174000D4E904010843A16940EA01202168C86086
:10175000D4E907010843216808602068016841F066
:10176000010101606564202084F84100256384F84C
:101770004250002070BD000000800002F0B5164FFE
:10178000016812220123032504261448144C87B053
:10179000B9420DD1C0218DE86E006946FFF758FCB3
:1017A000A06D40F40010A065A06D00F4001010E0E2
:1017B0000C4FB9420ED14FF440618DE86E0069467E
:1017C000FFF746FCA06D40F48000A065A06D00F41A
:1017D0008000059007B0F0BD0054004000040048B0
:1017E000001002400058004002480168491C016096
:1017F0007047000018000020094810B50168002457
:1018000041F480710160032000F090F8002000F0A6
:1018100009F808B1012401E000F01CF8204610BDD1
:101820000020024070B5054609484FF47A71002443
:101830000068B0FBF1F001F09EF908B1012404E06A
:1018400000222946501E00F051F8204670BD0000CD
:101850001C0000201E4808B5016E41F00101016620
:10186000016E01F001010091816D41F080518165AF
:10187000806D00F080500090032000F057F80022A7
:1018800011466FF00B0000F031F8002211466FF0A6
:101890000A0000F02BF8002211466FF0090000F05A
:1018A00025F800221146501F00F020F800221146B2
:1018B000101F00F01BF800221146901E00F016F8D1
:1018C0000022BDE808401146501E00F00FB800008D
:1018D0000010024000F01F020121914040098000E9
:1018E00000F1E020C0F8001170470000F0B40E4B8A
:1018F0001B680C46C3F30223C3F10705042D00D96E
:101900000425191D072901D2002300E0DB1E012652
:1019100006FA05F1491E214099409E40761E164068
:101920003143F0BC02F02CBB0CED00E0064900F0A6
:10193000070208684FF6FF03184040EA0220034AF6
:1019400010430860704700000CED00E00000FA054D
:101950001649B0F5007F0868C0F3412009D002287D
:1019600005D0086820F4C06040F480600860002062
:1019700070470128FBD0086820F4C06040F4007074
:1019800008600B483222006850430A4AB0FBF2F06C
:10199000401C00E0401E4A69520501D50028F9D1DB
:1019A00048694005E3D503207047000000700040FF
:1019B0001C00002040420F000248416841F4806151
:1019C00041607047007000400248006800F4C06049
:1019D00070470000007000400248016841F48071C7
:1019E00001607047007000400248016841F0040146
:1019F00001607047001002402DE9F05F06460020AC
:101A0000E14A4FF4807C4FF400444FF4FA454FF420
:101A10000079B6F5003F0DD0D168F02701F0030141
:101A2000DFF86883DA4B012921D0022931D003295C
:101A300039D133E0D2F8901001F4407161450AD0F9
:101A400049450ED0B1F5407F03D11168890300D517
:101A5000D04800F0A3B9D2F890108907F9D52046F4
:101A6000F7E7D2F894108907F3D52846F1E7116813
:101A7000890718D51168090703D5116801F0F0012D
:101A800003E0D2F8941007EA1111090958F821105F
:101A90000AE01168490506D5194605E01168890371
:101AA00001D5BD4900E00021CB464FF4804E4FF4F4
:101AB00000694FF4805A5E457DD02ADC102E7BD021
:101AC00013DC012E79D0022E78D0042E77D0082E88
:101AD000BFD1D2F8881011F0C00171D0402970D068
:101AE000802915D0C029B4D1B5E7202E6AD0402E68
:101AF00069D0802E68D06645ABD1D2F8881011F439
:101B000040315DD0B1F5803F5BD0B1F5003FA0D151
:101B100030E1764579D00ADCB6F5806F76D04E4557
:101B200028D0564528D0B6F5005F92D10AE0A642EB
:101B30006DD0B6F5803F6BD0B6F5802F02D0B6F5EC
:101B4000002F86D1D2F8883003F04063B3F1806F64
:101B50003BD0B3F1006F1CD0B3F1406F86D1116858
:101B600089077FF57DAF106800070AD5106800F07F
:101B7000F0000AE0484600E0504600F012B902F0DA
:101B800017BAD2F8940007EA1010000958F820009C
:101B90005FE713689B01FBD5D368DB02F8D5D068FB
:101BA000C0F30210401CB1FBF0F0D168C1F3062174
:101BB0004843D1681AE0B6E043E01AE029E034E097
:101BC000A2E066E04AE094E09FE013681B01DFD5E5
:101BD0001369DB02DCD5D068C0F30210401CB1FBF6
:101BE000F0F01169C1F3062148431169C1F3415175
:101BF0006FE0D2F8881011F0030176D0012948D0A7
:101C000002296CD00329C3D125E735E09BE0A9E088
:101C100066E0D2F8881011F00C0175D004297ED04E
:101C200008295CD00C29B3D115E7D2F8881011F03F
:101C3000300169D0102972D0202950D03029A7D185
:101C400009E7D2F8881011F440715DD0614566D083
:101C5000594544D0B1F5407F9AD1FCE6D2F88810BE
:101C600011F4406150D0B1F5806F58D0494536D05D
:101C7000B1F5406F8CD1EEE6D2F8883003F04053D6
:101C8000B3F1805F06D0B3F1005F12D0B3F1405FD3
:101C9000B9D144E01369DB0199D5D068C0F30210D3
:101CA000401CB1FBF0F01169C1F3062148431169F2
:101CB0000DE05369DB018AD5D068C0F30210401CE7
:101CC000B1FBF0F05169C1F3062148435169C1F3FA
:101CD0004161491C4900B0FBF1F0BAE605E049E07A
:101CE000D2F8880010F0004F19D100F05FB800F072
:101CF000E9BAD2F8881011F4405140D051450ED0C5
:101D0000B1F5005FE9D135E039E0D2F8881011F47F
:101D1000404134D0714502D0A142DED12AE000F02A
:101D20004AB800F0E1BAD2F8881011F4402126D068
:101D3000B1F5802F3FF495AEB1F5002F1AD0B1F573
:101D4000402FCAD187E6D2F8881011F4401116D07E
:101D5000B1F5801FEED0B1F5001F0BD0B1F5401FDB
:101D6000BBD178E6D2F8881011F0804107D0B1F1EC
:101D7000804FB2D111684905AFD5184669E600F029
:101D80001FB800F08DBA000000100240E8600008A3
:101D90000024F40090D0030000127A0030BCBDE8AB
:101DA000C09F30BCBDE8C05FFFF7E9BE30BCBDE8F6
:101DB000C05FFFF79CBF30BCBDE8C05FFFF7B1BF9D
:101DC00030BCBDE8C05FFFF7DCBF00002DE9F84F75
:101DD000044600270088E54D3E46010504F1200B2E
:101DE0001DD5606E78B1B0F5800F11D0B0F5000F41
:101DF00004D0B0F5400F22D001270FE0E86840F48E
:101E00008030E8601BE00021201D02F039F903E07A
:101E10000021584602F0CAF9070010D03E4620883B
:101E2000C00426D5A06EC0B1B0F1807F1AD0B0F149
:101E3000007F0DD0B0F1407F19D0012718E0D5F810
:101E40008800616E20F440000843C5F88800E6E78A
:101E5000E86840F48030E86009E00021201D02F0CD
:101E60000FF903E00021584602F0A0F90746F7B148
:101E70003E46206880033AD5A86D4FF00008C000A8
:101E800009D4A86D40F08050A865A86D4FF00108F6
:101E900000F080500090DFF8D8A2DAF8001041F48A
:101EA0008071CAF80010FFF7BDF9814610E0D5F83F
:101EB0008800A16E20F040700843C5F88800D8E77C
:101EC000FFF7B0F9A0EB0900022801D9032705E0CC
:101ED000DAF80000C005F3D5002F7CD04FEA0706E2
:101EE000B8F1000F03D0A86D20F08050A8652078CD
:101EF000C00707D0D5F88800A16B20F00300084385
:101F0000C5F888002078800707D5D5F88800E16BF0
:101F100020F00C000843C5F888002078400707D55A
:101F2000D5F88800216C20F030000843C5F88800FF
:101F30002078000707D5D5F88800616C20F0C00034
:101F40000843C5F888002078C00607D5D5F8880072
:101F5000A16C20F440700843C5F888002078800602
:101F600007D5D5F88800E16C20F440600843C5F837
:101F700088002088800507D5D5F88800E16D20F419
:101F800040200843C5F888002088400507D5D5F8CB
:101F90008800216E20F440100843C5F8880020789E
:101FA000400607D5D5F88800216D20F4405008433D
:101FB000C5F888002078000607D5D5F88800616D3F
:101FC00020F440400843C5F888002088C00509D5A2
:101FD000D5F8880000E01CE0A16D20F440300843F3
:101FE000C5F8880020884FF0006780044FF08068B3
:101FF0004FD5D5F88800E16E20F040600843C5F861
:102000008800E06EB8423CD1E86840F48010E86097
:102010003FE0D5F8900010F4407015D0D4F884104B
:10202000814211D0D5F89000D5F8901020F440707E
:1020300041F48031C5F89010D5F8901021F480312A
:10204000C5F89010C5F89000C00710D0FFF7EAF867
:10205000074641F2883906E0FFF7E4F8C11B49451D
:1020600001D903263CE7D5F890008007F4D5D5F8D0
:102070009000D4F8841020F440700843C5F8900014
:102080002EE7404505D10121201D01F0F9FF00B1E7
:1020900006462068000317D5D5F88800216F20F088
:1020A00040600843C5F88800206FB84204D1E86852
:1020B00040F48010E86007E0404505D10121201D73
:1020C00001F0DEFF00B106462068400317D5D5F8C1
:1020D0008800616F20F040600843C5F88800606F99
:1020E000B84204D1E86840F48010E86007E0404559
:1020F00005D10121201D01F0C3FF00B10646208853
:1021000040041AD5D5F88800A16F20F0405008434C
:10211000C5F88800A06FB0F1805F03D0B0F1005F18
:1021200005D00AE00221201D01F0AAFF03E00221F0
:10213000584602F03BF800B106462088000407D557
:10214000D5F88800E16F20F080400843C5F888008A
:102150002068C00307D555F8880FD4F8801020F008
:10216000004008432860304600F004B800100240E8
:102170000070004018BCBDE8E08F00002DE9F0477A
:102180000F46050058D03F4E306800F00700B842B7
:1021900009D2306820F0070038433060306800F022
:1021A0000700B84248D12878374CC0072CD068685F
:1021B000032811D0022812D0216898B149050029BE
:1021C0003ADAA16821F003010143A160FFF72AF880
:1021D000804641F2883910E021688901EFE72168E3
:1021E0008903ECE78907EAE7FFF71CF8A0EB080191
:1021F000494502D90320BDE8F087A068696800F06E
:102200000C00B0EB810FEFD12878800705D5A068CE
:10221000A96820F0F0000843A060306800F00700D3
:10222000B8420BD9306820F007003843306030687E
:1022300000F00700B84201D00120DCE72878400711
:1022400005D5A068E96820F4E0600843A06028781C
:10225000000706D5A068296920F4605040EAC10053
:10226000A06000F041F8A168084AC1F30311515C75
:1022700001F01F01C84006490860BDE8F047002092
:10228000FFF7D0BA0020024000100240D8600008DA
:102290001C00002001480068704700001C0000205E
:1022A0000548064900688968054AC1F30221515C66
:1022B00001F01F01C84070471C00002000100240C0
:1022C000186100080548064900688968054AC1F395
:1022D000C221515C01F01F01C84070471C00002062
:1022E000001002401861000870B525490023184607
:1022F0008A68CC6812F00C0204F00306214C4FEA05
:10230000640509D00C2A05D0042A26D0082A00D159
:10231000284670BD012E10D10B681B0704D4D1F8DC
:102320009430C3F3032302E00B68C3F30313164E88
:1023300056F823307AB10C2AEBD1C86800F00302BA
:10234000C868C0F30210401C022A08D0032A09D032
:10235000B3FBF0F008E0184670BD204670BDB4FB3A
:10236000F0F001E0B5FBF0F0CA68C968C2F30622DC
:102370005043C1F34161491C4900B0FBF1F070BD0D
:10238000001002400024F400E86000082DE9F84342
:1023900005007CD0FD4CA06800F00C06E06800F061
:1023A00003072878C00661D576B10C2E01D1012F24
:1023B0000AD0A8690028206878D040F00100206089
:1023C000FEF730FF804659E02068800702D5A869F3
:1023D0000028DED0286A2168090703D5216801F0AA
:1023E000F00104E0D4F89410F02202EA11118842BE
:1023F00015D901F05FFF002849D1206840F008009E
:1024000020602068296A20F0F0000843206060689E
:10241000E96920F47F4040EA0120606015E020680F
:1024200040F0080020602068296A20F0F00008438E
:1024300020606068E96920F47F4040EA0120606024
:10244000286A01F037FF0028D6D1FFF74DFFA168B9
:10245000CF4AC1F30311515C01F01F01C840CD49BF
:1024600008600020FFF7DEF900287DD12FE000BFD3
:10247000FEF7D8FEA0EB0800022876D82068800777
:10248000F6D5206840F008002060206801E0BBE03D
:102490000CE0296A20F0F000084320606068E969D8
:1024A00020F47F4040EA0120606010E020F001004D
:1024B0002060FEF7B7FE804606E000BFFEF7B2FEE2
:1024C000A0EB08000228D8D820688007F6D4287826
:1024D000C00740D0082E18D00C2E01D1032F14D0E5
:1024E0006868B0F5803F17D0B0F5A02F206817D0EE
:1024F00020F480302060206820F48020206068680C
:10250000E0B1FEF78FFE804614E02068800322D5FC
:102510006868002878D01EE0206840F48030EDE73D
:1025200040F480202060F7E7FEF77CFEA0EB080077
:102530006428A2D820688003F6D50CE0FEF772FE6E
:10254000804605E0FEF76EFEA0EB0800642894D8F4
:1025500020688003F6D4287880073BD5042E11D05C
:102560000C2E04D1022F01E036E1A1E00AD0E86888
:10257000002820681ED040F480702060FEF752FED4
:1025800007460CE0206840050CD5E8680028C1D05B
:1025900008E000BFFEF746FEC01B022893D8206863
:1025A0004005F7D56068297C20F0F85040EA0160CA
:1025B00060600FE020F480702060FEF733FE074675
:1025C00005E000BFFEF72EFEC01B022870D8206871
:1025D0004005F7D42878000729D568690028D4F881
:1025E000940012D040F00100C4F89400FEF71AFEE7
:1025F000074604E0FEF716FEC01B022858D8D4F8A0
:1026000094008007F6D512E0EDE020F00100C4F858
:102610009400FEF707FE074605E000BFFEF702FE46
:10262000C01B022844D8D4F894008007F6D4287838
:10263000400768D5A06D0027C00008D4A06D40F009
:102640008050A065A06D012700F080500090524896
:102650000168C90512D40168814641F480710160A6
:10266000FEF7E0FD804605E0FEF7DCFDA0EB08008C
:1026700002281DD8D9F80000C005F5D5A8680128A2
:1026800017D00528D4F8900018D020F00100C4F825
:102690009000D4F8900020F0040000BFC4F890002F
:1026A000A86841F28839D0B1FEF7BCFD804611E040
:1026B0006BE0D4F8900040F00100EFE740F0040038
:1026C000C4F89000F5E700BFFEF7ACFDA0EB0801F1
:1026D00049455AD8D4F890008007F5D50EE0FEF7AA
:1026E000A1FD804606E000BFFEF79CFDA0EB0801BF
:1026F000494570D8D4F890008007F5D41FB1A06D7B
:1027000020F08050A065A86AF0B30C2E6BD0022890
:10271000206820F08070206004D0206810F0205FD6
:1027200047D04AE0FEF77EFD064604E0FEF77AFD5C
:10273000801B02284FD820688001F7D4286BE96AF3
:10274000000110380843696BAA6B0902120941EABB
:1027500042410843A98F114A490802EB41510843FD
:1027600095F840104908120102EB41610843E0600E
:10277000206840F080702060E06840F08070E06089
:10278000FEF750FD054610E02BE024E0001002406B
:10279000D86000081C000020007000400000E0FF2E
:1027A000FEF740FD401B022815D820688001F7D5B0
:1027B00017E0E06820F00300E060E0680B490840A3
:1027C000E060FEF72FFD054608E000BFFEF72AFD9A
:1027D000401B022802D90320BDE8F883206880014D
:1027E000F4D40020F8E70120F6E70000FFFFEEFE3A
:1027F0002DE9F04104000CD094F87D00002620B9AA
:1028000084F87C60204600F0CDF8204601F090FD71
:1028100010B10120BDE8F081022084F87D00E0685D
:1028200020B101280ED002280ED00020A2684FF45B
:1028300000612AB1012A09D0022A0AD0032A0AD04B
:1028400000250BE01020F1E72020EFE74FF4806532
:1028500004E00D4602E00D4640F001004D4B4D4AAC
:1028600027682033974201D09F4202D1494F3F1F32
:1028700000E0494F3860E069E8B12068904201D03B
:10288000984201D1084601E04FF48050FFF7B4F8B8
:10289000E16900EB800040004902B0FBF1F10A223F
:1028A000B1FBF2F0B1FBF2F302FB13112062082935
:1028B00001D9401C206260684FF40071E8B302281F
:1028C00064D0E06B012800D0002120680268334BFF
:1028D0001A400260226B60681043D4E90D231A434A
:1028E00010430843616A284308432169084361692A
:1028F0000843218C40EA01512068026811430160BD
:10290000206841684EF20F02914341602168486897
:10291000A2691043D4E90A231A431043486020688F
:1029200081681F4A11408160A16C206D226C0843B0
:10293000E16C521E1143084300E027E0616C6FF028
:10294000FF0202EB0121084321688B68184388606D
:102950002068C1684FF220031940C160D4E9150115
:102960000843E16D02EB0121B4F8602041EA024125
:1029700008432168CA681043C860C4F88060012019
:1029800084F87D0084F87C60002043E7E06B012838
:102990009AD09AE7045401400058014010C005FF46
:1029A0000080F8FF2DE9F04F074600682749284CC2
:1029B0000026DFF8A0B0284D87B04FF002084FF096
:1029C000030A4FF00D09884221D1286838B9216ED9
:1029D00041F400112166216E01F400110591401CA3
:1029E00028607420CDE90008CDE9026A6946CDF877
:1029F00010905846FEF72CFB4FF400700090CDE984
:102A00000186CDE9036969465846FEF721FB0F4967
:102A100038682031884216D1286838B9216E41F4CF
:102A200000112166216E01F400110591401C2860FF
:102A30008020CDE90008CDE9026A6946CDF8109002
:102A40005846FEF705FB07B000F008B804540140F3
:102A500000100240001000481000002030BCBDE80B
:102A6000C08F2DE9F041040005D00025A56294F83F
:102A70005D0018B107E00120BDE8F08184F85C50EA
:102A8000204600F045F8022384F85D302068016894
:102A900021F040010160E0684FF4E066B04201D9E6
:102AA000002101E04FF48051B0F5706F02D0B042C8
:102AB00000D0A562276B012227B9B04201D9236358
:102AC00000E02263D4E901031843D4E90436334318
:102AD0001843238B03F400731843E3691843236AF4
:102AE0001843A36A184323681860636B606AA66979
:102AF00018430427E36807EA16463343184308439C
:102B000021684860256684F85D200020B4E7000055
:102B100000B500680E4987B0884216D10D48816D16
:102B200041F480418165806D694600F480400590E4
:102B30001A200090022001900020029003200390B0
:102B4000052004900448FEF783FA07B000BD00009A
:102B50000038004000100240000C00484FF0E02117
:102B60000428086903D020F004000861704740F091
:102B70000400FAE7704710B5401EB0F1807F01D322
:102B8000012010BD4FF0E02460610F21601701F0BB
:102B9000F7F90020A06107202061002010BD10B5CA
:102BA000FFF7E8FF10BD10B5040003D094F87100E2
:102BB00010B107E0012010BD002084F8700020460D
:102BC00000F026F8242084F871002068016821F0C4
:102BD00001010160204601F0F1FC0128EBD0606AA0
:102BE00010B1204601F058FC2068416821F4904162
:102BF00041602068816821F02A01816020680168B5
:102C000041F0010101602046BDE8104001F0A8BC80
:102C100000B500680E4987B0884216D10D48816D15
:102C200041F400318165806D694600F40030059003
:102C30006020009002200190012002900320039068
:102C4000072004900448FEF703FA07B000BD000017
:102C50000044004000100240000C00482DE9F05FE5
:102C6000074600680E4600EB4114D4F808054FF003
:102C7000040B420701EB86004FF0050A4FF01008E5
:102C800007EBC00508D5C4F808B5D4F80C0540F02A
:102C90000200C4F80C0530E0D4F80805800601D520
:102CA000202028E0D4F808054FF0080900070FD5C8
:102CB000D4F80C0540F00200C4F80C0585F85DA0BE
:102CC000C4F80885C4F80895386802F064FD14E07B
:102CD000D4F80805400510D5D4F80C0540F00200E2
:102CE000C4F80C05386802F056FDC4F8088585F86C
:102CF0005D904FF48060C4F80805D4F8080580059D
:102D00000ED5D4F80C0540F00200C4F80C0531468D
:102D100004F5A164386802F03EFD4FF4007090E0C5
:102D2000D4F808054FF00001C0074FF0010237D07A
:102D3000386930B1A86CD4F81035C3F31203C01A47
:102D4000E86485F85D20A965C4F8082595F83F007A
:102D500020B1022802D003280FD01AE0D4F80C05C5
:102D600040F00200C4F80C05314604F5A16438684F
:102D700002F011FDC4F800800BE0D4F8000540F02B
:102D80000050C4F8000585F85C2031463846FEF74F
:102D9000B8FA15F8500F80F00100287000F074B8F0
:102DA000D4F80805800735D5D4F80C0520F00200CA
:102DB000C4F80C0595F85D000223012808D0052809
:102DC00009D006280AD0082808D003281FD015E00B
:102DD00085F85C2012E085F85CA00FE0A86D401C2F
:102DE000A865032813D9A96585F85CB0D4F8000557
:102DF00020F0804040F00040C4F80005C4F80835D9
:102E000095F85C2031463846FEF77BFAC6E785F830
:102E10005C30EBE7D4F80805000614D5D4F80C05AF
:102E200040F00200C4F80C05A86D3146401CA865AE
:102E3000062085F85D0004F5A164386802F0ABFC5B
:102E400080202060AAE7D4F80805C006A6D595F82A
:102E50003F00032803D020B1022802D011E0A96569
:102E600005E0A965386960B9032085F85D00D4F8EC
:102E70000C0540F00200C4F80C053146386802F039
:102E80008AFCC4F8088589E730BCBDE8C09F2DE9FD
:102E9000F047026802EB4114D4F808254FF0040310
:102EA000520709D5C4F80835D4F80C0540F00200E3
:102EB000C4F80C05BDE8F087D4F8082501EB8105BE
:102EC00096064FF0000200EBC5054FF0020C15D539
:102ED0002023C4F8083595F83D30012BEAD185F858
:102EE0003D2085F85CC0D4F80C2542F00202C4F8FD
:102EF0000C250068BDE8F04702F04DBCD4F8086529
:102F000077064FF0010611D585F85D3085F83D60F4
:102F1000AA65D4F80C2542F00202C4F80C2500681A
:102F200004F5A16402F037FC402010E0D4F80875E5
:102F3000BF050ED5D4F80C2542F00202C4F80C25CA
:102F4000006804F5A16402F026FC4FF400702060D4
:102F5000B0E7D4F80875FF070FD0AA65D4F80C25A0
:102F600042F00202C4F80C25006804F5A16402F0E6
:102F700012FC266085F85D609CE7D4F808754FF078
:102F800005095FEA07784FF008070DD5C4F8087502
:102F9000D4F80C2542F00202C4F80C25006802F0B7
:102FA000FAFB85F85D9085E7D4F808854FF0100AA4
:102FB0005FEAC86818D5AA65032285F85D2095F8F0
:102FC0003D2022B995F83C200AB985F83D60D4F837
:102FD0000C2542F00202C4F80C25006804F5A16437
:102FE00002F0D9FB5046B2E7D4F808855FEA0868DA
:102FF0000FD5D4F80C2542F00202C4F80C25006865
:1030000004F5A16402F0C7FB062085F85D0080206E
:103010009DE7D4F808855FEA485812D5D4F80C2506
:1030200042F00202C4F80C25006804F5A16402F025
:10303000B2FBC4F800A04FF48060206085F85D709A
:1030400038E7D4F80875BF0796D5D4F80C7527F083
:103050000207C4F80C7595F85D70012F0AD0032F94
:1030600015D0042F13D0052F14D0062F15D0082FFC
:1030700013D025E085F85C6095F83F20022A1FD127
:1030800095F8512082F0010285F8512018E085F86A
:103090005CC015E085F85C9012E0AE6D761CAE6504
:1030A000032E03D9AA6585F85C3001E085F85CC081
:1030B000D4F8002522F0804242F00042C4F80025F6
:1030C000C4F808C595F85C20FEF71BF9F2E67CB55C
:1030D00004680546D4F840040190D4F8400420F078
:1030E0002E000090019880070DD50198C00706D0EA
:1030F000A06920F00051A1612846FEF799F80098D8
:1031000040F0020000900198000732D5009840F08E
:1031100008000090019840071DD5A869022803D037
:10312000E86803280CD00FE00198C0F34140022862
:10313000286803D0012102F0E7FC05E00221FAE74C
:103140004EF66020C4F804042846FEF733FA2846F9
:10315000FEF76EF80DE02846FEF728FAD4F8400492
:1031600020F02E00C4F840042868816941F0005125
:10317000816101988006009802D540F020000090FF
:10318000C4F840047CBD00002DE9F041024600680F
:103190000646016AC1F3434301F00F07C1F30A1465
:1031A000022B25D1002C23D007EB870102EBC105B0
:1031B000696C00291CD0224602F0C5FC686C2044D2
:1031C0006864E86C2044E86406EB4710D0F81015FA
:1031D000084A11420CD0D0F8001521F0804141F08E
:1031E0000041C0F8001515F8500F80F0010028705C
:1031F000BDE8F0810000F81FFEE7000010B50A49A5
:1032000008684007FCD40020084A034602EB80040B
:10321000C4F81434401CC0B20F28F7D9086840F035
:103220000400086010BD0000082400400020004099
:103230002148816DC90003D4816D41F080518165C1
:10324000816D1E490A68D20506D40A6842F480726C
:103250000A600A68D205FCD5D0F8901021F005016B
:10326000C0F89010D0F8901041F48031C0F8901060
:10327000D0F8901021F4803104E000BFD0F8901015
:1032800041F00101C0F89010D0F890108907F5D5F1
:1032900050F8901F21F4407140F83819816B41F4C7
:1032A00080718163016821F080510160016841F4FF
:1032B0000071016070470000001002400070004083
:1032C0001848016821F060010160016841F0400187
:1032D0000160016821F01C010160016841F00C01EE
:1032E0000160011D0A6842F4E0520A600A6842F077
:1032F00070020A60016821F080010160016821F01C
:1033000002010160074908310A689206FCD502688B
:1033100042F0010202600868C007FCD00868C006DD
:10332000FCD5704700240040F0B500240078254605
:10333000342817D00FDCA0F12006142E24D2DFE8A9
:1033400006F035232323236723234C4E495F235C58
:10335000236211111111642843D009DCA0F1350654
:10336000042E11D82D4C04EB400030F8604C1DE0C9
:10337000B0284AD004DC6D2836D06E2804D136E05F
:10338000B52837D0FF2846D0244EA0F14107343E5F
:103390001A2F03D206EB400434F8824CA0F16107E7
:1033A0001A2F03D206EB400030F8C24C09B144F0AA
:1033B00002040AB144F020045FF00C0024FA00F18A
:1033C00001F00F015955001F6D1CEDB2C0B2042D64
:1033D000F4D3F0BD4AF2DD04E8E72824E6E711243F
:1033E000E4E74FF47344E1E74BF21024DEE742F2E6
:1033F0001024DBE746F28404D8E74FF42044D5E7F5
:103400004AF21404D2E7C024D0E74FF46C44CDE76D
:103410004FF43344CAE74FF6DD74C7E7C4600008D1
:1034200000B500F009F8FFF703FFFFF749FF5DF86B
:1034300004EBFFF7E3BE00003D48C16C41F0010121
:10344000C164C16C41F00201C164C16C41F004016E
:10345000C164C16C41F00801C1644FF09040016843
:10346000344A114001600168334A11430160016A26
:1034700021F07F410162016A41F03B410162416AF2
:103480002E4A11404162416A2D4A114341622D4842
:1034900001682D4A1140016001682C4A1143016006
:1034A00028482030016801F0FF210160016841F0E7
:1034B000BB110160001D01684FF60F7211400160E1
:1034C0000168234A1143016022480168224A1140E1
:1034D00001600168214A114301601E4820300168E3
:1034E000C1F30B01016001681D4A11430160001D19
:1034F000016821F00F010160016841F00B010160DA
:103500001848016889B201600168174A11430160D7
:10351000144820300168016001680160001D0168E5
:1035200000210160016841F0BB310160704700007B
:1035300000100240FF0FC03F00A02A8000F0FF0FE4
:10354000BB0B00B000040048F0F0F3000A0A08AA20
:10355000B000BBBB000800483F00FCFF80AA02008F
:1035600000B0BBBB000C00480000AAAA2DE9F84F30
:103570001C466B46FFF7D8FEDFF804A4DAF800001B
:103580004007FBD4FE4AFE48FD49FD4B24320C3077
:1035900014311C33051D0E1D171F02F1040C062CDF
:1035A00059D2DFE804F00359B1FDFCFB0568F54C86
:1035B000254005600D6825400D601D6825401D6093
:1035C0001568254015609DF80040E507ED0EC4F331
:1035D000400645EAC655C4F3800645EA865504F020
:1035E000080425430468254305609DF80100C407CD
:1035F000E40EC0F3400544EAC554C0F3800544EA34
:10360000855400F008000443086804430C609DF8EA
:103610000200C107C90EC0F3400441EAC451C0F31F
:10362000800441EA845100F0080001431868014316
:1036300019609DF80300C107C90EC0F3400341EAB9
:10364000C351C0F3800341EA835100F008000143F5
:10365000106801431160ACE1056843F26004A543C2
:1036600005600D68A5430D601D68A5431D601568C4
:10367000A54315609DF80040E5076D0EC4F34006B4
:1036800045EA4635C4F3800645EA0635C4F3C0046E
:1036900045EA441405682C4304609DF80100C40702
:1036A000640EC0F3400544EA4534C0F3800544EAA3
:1036B0000534C0F3C00044EA40100C6820430860A1
:1036C0009DF80200C107490EC0F3400441EA4431AD
:1036D000C0F3800441EA0431C0F3C00041EA401065
:1036E0001968084318609DF80300C107490EC0F32C
:1036F000400341EA4331C0F3800341EA0331C0F3A0
:10370000C00041EA401059E005689F4C2540056023
:103710000D6825400D601D6825401D601568254019
:1037200015609DF80040E5072D0CC4F3400645EAFE
:103730004675C4F3800645EA0675C4F3C00445EA3D
:10374000843405682C4304609DF80100C407240CF0
:10375000C0F3400544EA4574C0F3800544EA0574AB
:10376000C0F3C00044EA80300C68204308609DF834
:103770000200C107090CC0F3400441EA4471C0F3E0
:10378000800441EA0471C0F3C00041EA8030196846
:10379000084318609DF80300C10702E011E183E0CF
:1037A00010E0090CC0F3400341EA4371C0F3800309
:1037B00041EA0371C0F3C00041EA80301168084358
:1037C0001060F6E0046824F0404404602C6824F0A3
:1037D00003042C600C6824F040440C60346824F02E
:1037E000030434601C6824F040441C603C6824F0EE
:1037F00003043C60146824F040441460DCF800408A
:10380000E14624F0030CC9F800C09DF800404FEADF
:10381000C47CC4F3C0084CEA887CD0F800804CEA31
:10382000080CC0F800C004F00200C4F38004204378
:103830002C68204328609DF80100C407C0F3C00530
:1038400044EA85740D682C430C6000F00201C0F35B
:10385000800001433068014331609DF80200C107D8
:10386000C0F3C00441EA84711C682143196000F070
:103870000201C0F3800001433868014339609DF8BC
:103880000300C107C0F3C00341EA83711368194301
:10389000116000F00201C0F380000143D9F800007C
:1038A0000143C9F8001084E0046824F04074046007
:1038B0002C6824F00C042C600C6824F040740C601C
:1038C000346824F00C04346099461B6823F040747B
:1038D000C9F800403B6823F00C033B60136823F0F9
:1038E00040731360DCF8003023F00C03CCF8003098
:1038F0009DF80030C3F340046406C3F3800844EA33
:103900000864D0F8008044EA08040460D807000F77
:10391000C3F3C00340EA83002B68184328609DF876
:103920000100C0F340035B06C0F3800443EA046374
:103930000C6823430B60C107090FC0F3C00041EAC4
:1039400080003168084330609DF80200C0F34001F8
:103950004906C0F3800341EA0361D9F800301943F6
:10396000C9F80010C107090FC0F3C00041EA800088
:103970003968084338609DF80300C0F3400105E052
:1039800008240040E7FF3FFFFF3FFFCF4906C0F399
:10399000800341EA0361136819431160C107090FED
:1039A000C0F3C00041EA8000DCF800100843CCF806
:1039B0000000DAF8001041F00401CAF8001000F02D
:1039C00059B805682A4C254005600D6825400D60F2
:1039D0001D6825401D601568254015609DF8004054
:1039E000E507AD0BC4F3400645EA0625C4F380069F
:1039F00045EA4625C4F3C00445EA846405682C43BF
:103A000004609DF80100C407A40BC0F3400544EA1C
:103A10000524C0F3800544EA4524C0F3C00044EA0D
:103A200080600C68204308609DF80200C107890B84
:103A3000C0F3400441EA0421C0F3800441EA442178
:103A4000C0F3C00041EA80601968084318609DF81F
:103A50000300C107890BC0F3400341EA0321C0F30F
:103A6000800341EA4321C0F3C00041EA8060A5E63B
:103A7000FFFCFDFB18BCBDE8E08F00EB8100006E91
:103A800000F0F84070478068C0F3C000704780685D
:103A9000C0F3800070478068C0F380007047C06842
:103AA00010F4406F01D000207047012070470423BC
:103AB00010B503EAD1531844C1F3045107248C40D4
:103AC00043698A40A3431343436110BD00EB810067
:103AD000016E21F0004111430166704730B51C486A
:103AE00089B01A490024C0E900140821C0E9021471
:103AF0000425C0E90445047644760121C16180F8BB
:103B000020408462C46280F83040446380F83840CA
:103B1000FDF788F800B1FEE706A90D480694FCF70A
:103B200007FE00B1FEE70B4800900620CDE9010436
:103B30007F200594CDE9030569460548FCF770FE32
:103B4000002800D0FEE709B030BD0000000004509E
:103B5000480000204000201928B100224FF40071D5
:103B60000248FDF75ABB0122F8E7000000080048B0
:103B70002DE9F04F7C4887B0C16C41F01001C16461
:103B8000C16C01F010010591C16C41F00401C164E8
:103B9000C16C01F004010591C16C41F08001C16468
:103BA000C16C01F080010591C16C41F00101C1645B
:103BB000C16C01F001010591C16C41F00201C164C9
:103BC000C16C01F002010591C16C41F00801C164B2
:103BD000C06C002200F0080005904CF20911634807
:103BE000FDF71BFBDFF888B100220C215846FDF7DA
:103BF00014FB012251025F48FDF70FFB00224FF436
:103C000000615C48FDF709FB002280215A48FDF75E
:103C100004FB4FF0080A022601250024CDF800A07D
:103C20000396CDE9015469465048FDF711FA534F08
:103C30006803CDE90007694602944E48FDF708FA8B
:103C40000720CDE9000469464A480294FDF700FACE
:103C50002D2000904A48CDE901064FF09048694672
:103C60004046FDF7F5F91020CDE9000769460294BA
:103C70004046FDF7EDF90420CDE900054FF00308BB
:103C8000CDE9025869465846FDF7E2F94FF48079CC
:103C9000CDE90095CDE9025869463448FDF7D8F9D9
:103CA0004FF47050CDE9000602940A20CDE903805C
:103CB00069462E48FDF7CCF94CF201000090CDE9A1
:103CC0000154694629480394FDF7C2F94FF4206076
:103CD0000090CDE90154694626480394FDF7B8F9F0
:103CE0008020CDE90005CDE9024869462248FDF76C
:103CF000AFF9CDF800A0CDE90154694658460394C8
:103D0000FDF7A6F9CDF80090CDE901746946584653
:103D1000FDF79EF90096CDE9017469461348FDF759
:103D200097F9002211460620FDF7E0FD0620FDF779
:103D3000D1FD002211460820FDF7D8FD0820FDF72F
:103D4000C9FD002211460920FDF7D0FD0920FDF72D
:103D5000C1FD002211461720FDF7C8FD1720FDF711
:103D6000B9FD07B000F00EB8001002400010004886
:103D70000004004800080048000C00480000121031
:103D80000000111030BCBDE8C08F0000114810B514
:103D90000F4901601049416000210122C0E902126F
:103DA000016141618161C1610162FDF78BFC00B17C
:103DB000FEE700210748FDF730FC00B1FEE70021D7
:103DC0000448FDF755FC002800D0FEE710BD0000B8
:103DD00000540040AC000020744C4000114810B565
:103DE0000F4901601049416000210122C0E902121F
:103DF000016141618161C1610162FDF763FC00B154
:103E0000FEE700210748FDF708FC00B1FEE70021AE
:103E10000448FDF72DFC002800D0FEE710BD00008F
:103E200000580040F8000020744C400070B5234852
:103E3000002421490463C0E90014C026C0E90D64D0
:103E4000C463846004611E494461C0E90641C460E2
:103E5000446284620821C46201250164C0E91154EE
:103E6000C46404654465C0E916450466FEF7C0FCF9
:103E700000B1FEE711481049843020310160032170
:103E80004160C0E90C468463C46304618461C0E995
:103E90000254446284621821C4620164C0E911546E
:103EA000C46404654465C0E916450466FEF7A0FCD9
:103EB000002800D0FEE770BD0454014044010020FA
:103EC00000EE0200104810B50E4901604FF48271F7
:103ED000416000214FF44072C0E902124FF40072B9
:103EE0000161C0E90512C161016207224162C0E9B6
:103EF0000A12016308214163FEF7B3FD002800D0D8
:103F0000FEE710BD003800404C0200200C4810B500
:103F10000A4901604FF4E1314160002181600C22C7
:103F2000C160C0E904128161C16101624162FEF7B2
:103F30003AFE002800D0FEE710BD0000004400401B
:103F4000B002002010B501220649074801F0AAF886
:103F50000649054801F028FBBDE81040024801F081
:103F600066BB000045560008280300202000002002
:103F7000014801F049BA000028030020FEE770471D
:103F80000907090E002806DA00F00F0000F1E02012
:103F900080F8141D704700F1E02080F8001470478D
:103FA0000148FDF7F5B90000F40600207047000055
:103FB00010B503460020304C304AB3F5006F03D0F3
:103FC000B3F5805F09D03FE0D2F8883003F44003B6
:103FD000B3F5400F08D1204610BDD2F8883003F069
:103FE0004073B3F1407FF6D0B3F5000F1AD0B3F1B0
:103FF000007F17D043B3B3F5800F02D0B3F1807FB9
:10400000EAD15369DB03E7D5D068C0F30210401C46
:10401000B1FBF0F35069C0F306215069800329D544
:1040200011200DE0D368DB03D6D5D068C0F30210B1
:10403000401CB1FBF0F3D068C0F30621D068EDE777
:104040004B43B3FBF0F010BD1369DB03FBD5D06825
:10405000C0F30210401CB1FBF0F310691169C0F30A
:104060000620890301D5112100E007214343B3FB5A
:10407000F1F010BD0720E3E768FF1F0000100240C9
:104080002DE9F041444C05468846E068002681074A
:1040900028680DD0E16801F00301814216D1A8B172
:1040A000E0686968C0F30210401C88420ED120E02D
:1040B000012804D0022805D0032807D108E0216890
:1040C000890701E021684905002907DB01265FE037
:1040D0002168890302D421684903F5E7E1686A6829
:1040E0006FF00F0321F0730103EB02121143014340
:1040F000E160206820F080602060FDF793F80746BB
:1041000005E000BFFDF78EF8C01B022837D82068F5
:104110000001F7D4B8F1000F18D0B8F1010F1ED08C
:10412000287D4FF07E41400801EB4060A96840EADD
:1041300001202169194A114008432061206840F09C
:1041400080602060FDF76EF807461AE0A868E9680D
:104150000002090940EA41402169114AEBE7288A37
:104160001049400801EB4050A96840EA012021694C
:104170000D4AE0E7FDF756F8C01B022801D90326D7
:1041800006E020680001F5D52069A969084320618F
:104190003046BDE8F081000000100240FF80FFF9CA
:1041A000FF80FDFF0000E0FFFF809FFF2DE9F04151
:1041B0003D4C06468846E0680025810730680DD0F2
:1041C000E16801F00301814216D1A8B1E06871688D
:1041D000C0F30210401C88420ED120E0012804D018
:1041E000022805D0032807D108E02168890701E0EB
:1041F00021684905002907DB012551E02168890371
:1042000002D421684903F5E7E16872686FF00F0393
:1042100021F0730103EB021211430143E1602068B6
:1042200020F080502060FCF7FDFF074605E000BF4E
:10423000FCF7F8FFC01B022829D820688000F7D4BB
:10424000B8F1000F15D0307C4FF07E41400801EBF3
:104250004060B16840EA01206169144A1140084396
:104260006061206840F080502060FCF7DBFF07466B
:104270000FE0B068F1680002090940EA4140616955
:104280000B4AEBE7FCF7CEFFC01B022801D9032540
:1042900006E020688000F5D56069716908436061B7
:1042A0002846BDE8F081000000100240FF80FFF9C1
:1042B000FF80FDFFF8B51C4D06460024A86DC00028
:1042C00002D5FDF781FB0DE0A86D40F08050A86598
:1042D000A86D00F080500090FDF776FBA96D21F0ED
:1042E0008051A965B0F5007F04D0802E07D94FF02A
:1042F00003040AE0802E08D9A02E01D804E001D1E1
:10430000022402E0702E00D101240848016821F047
:10431000070121430160006800F00700A04201D0BE
:104320000120F8BD0020F8BD00100240002002402E
:1043300010B50E4941F6583203680968B1FBF2F135
:1043400089001C68002224F480341C6031B10368A9
:104350001B68491EDB03F9D4104610BD50F8801FBE
:1043600041F0400101600322F6E700001C0000203C
:10437000704710B5FDF738FABDE81040FEF70FBCE6
:10438000F0B5B9B0FDF728FB2F4850F8901F21F089
:104390001801016001251C202795249500242290F6
:1043A000CDE9285402266020CDE92C652A901420FE
:1043B0000727CDE92E50CDE93076329622A8FDF7B9
:1043C000E5FF00B1FEE70F203390032034908020FA
:1043D000CDE93504012133A83794FDF7CFFE00B1B4
:1043E000FEE70F941494194819940090C0061E908B
:1043F0001594C41480101B9021941820CDE902500C
:1044000013480195CDE90660CDE904766846FDF7CD
:10441000DDFC00B1FEE72046FDF79AFA00B1FEE7A9
:10442000FDF738FF4FF47A71B0FBF1F0FEF7A3FB14
:104430000420FEF793FBFDF7D7FA00221146501E29
:10444000FDF754FA39B0F0BD00100240C268020016
:10445000000011010D48016841F4700101600C4831
:10446000016841F001010160002181600268094B8F
:104470001A4002608214C260026822F48022026044
:1044800081610249C00380390860704788ED00E00F
:1044900000100240FFFFF6EA90F82410C90706D08A
:1044A00001684A68836A22F400321A434A6090F82D
:1044B0002410890706D501684A68C36A22F480324D
:1044C0001A434A6090F82410490706D501684A68E3
:1044D000036B22F480221A434A6090F824100907E3
:1044E00006D501684A68436B22F400421A434A60C9
:1044F00090F82410C90606D501688A68836B22F4F7
:1045000080521A438A6090F82410890606D5016803
:104510008A68C36B22F400521A438A6090F8241010
:10452000490611D501684A68036C22F480121A43C7
:104530004A60016CB1F5801F06D101684A68436C7E
:1045400022F4C0021A434A6090F82410090606D5E6
:1045500001684A68806C22F4002202434A60704776
:10456000F8B5002604464667FCF75CFE0546206861
:1045700000686FF07E47000708D52B4600224FF4F5
:1045800000112046009700F069F960B920680068C2
:1045900040070AD52B4600224FF4800120460097A1
:1045A00000F05CF908B10320F8BD202084F8710008
:1045B00084F8720084F870600020F8BD2DE9F041A5
:1045C0000446016880682369E66918436369102519
:1045D000002733431843954A0B68954E33400343F5
:1045E0000B6020684168E36821F440511943416041
:1045F0002168A069914201D0236A18438B6823F493
:10460000306303438B608B4B21688B4899420DD1FB
:10461000D0F8880010F0030006D001285AD00228F4
:1046200056D0032859D157E0012556E0834B9942D3
:104630000BD1D0F8880010F00C0047D0042849D0E6
:10464000082845D00C2848D146E07D4B99420BD133
:10465000D0F8880010F0300038D010283AD0202848
:1046600036D0302839D137E0764B99420BD1D0F88B
:10467000880010F0C00029D040282BD0802827D0F7
:10468000C0282AD128E0704B99420ED1D0F888007A
:1046900010F440701AD0B0F5807F1BD0B0F5007FC9
:1046A00016D0B0F5407F18D116E0914215D1D0F860
:1046B000880010F4406009D0B0F5806F0AD0B0F5E2
:1046C000006F05D0B0F5406F07D105E0002504E08C
:1046D000022502E0042500E008255C4B00264FF48B
:1046E000004091423DD135B1022D07D0042D07D0B5
:1046F000082D10D107E0FDF7D3FD03E0184602E0D6
:10470000FDF7F2FDA8B3626802EB4201814202D8D4
:10471000B0EB023F01D9012775E0DFF834815DB1CC
:10472000022D0CD0042D13D0082DF4D150082905EA
:10473000401846F1000105E0FDF7B2FD0AE050081F
:104740004449F5E70023FBF73BFDA0F5407156E037
:10475000FDF7CAFD6268010E030250081818714186
:10476000F0E7E1694FF6EF7881422FD1092DD2D2DF
:1047700000E048E0DFE805F006092005230505050F
:104780002600C8E7FDF78CFD01E0FDF79BFD410029
:10479000D4F8040001EB5001B1FBF0F080B2A0F1BD
:1047A00010014145B7D84FF6F0710140C0F3420007
:1047B00001432068C16026E027496068EAE7FDF709
:1047C00093FDE4E74FF480316068E3E7092DA2D25E
:1047D000DFE805F006091E052205050525009AE714
:1047E000FDF75EFD01E0FDF76DFD0146606801EB40
:1047F000500100BFB1FBF0F080B2A0F110014145C3
:1048000089D82168C860266638466666BDE8F081AA
:10481000606803EB5001EDE7FDF766FDE5E76168D1
:1048200000EB5100B0FBF1F0E6E700000080004033
:10483000F369FFEF003801400010024000440040DF
:1048400000480040004C0040005000400024F400AC
:10485000FFFC0F00000024F40048E8012DE9F041BE
:10486000984617460E460446069D1DE0681C1BD060
:104870002DB1FCF7D7FCA0EB0800A84214D92068A2
:10488000016821F4D07101602068816821F0010184
:104890008160202084F8710084F87200002084F880
:1048A00070000320BDE8F0812068C06936EA00008E
:1048B00004D00020B842D9D00020F3E70120F9E766
:1048C00010B500224FF6FF7300EB8204B4F880436A
:1048D000240409D49A4205D000EB820041F400413F
:1048E000C0F88013D0B210BD521CD2B20B2AEBD349
:1048F0001A46F7E77FB51C46012501AE0023009557
:1049000086E80E0002232A46214600F0EDFC04B0A2
:10491000002070BD7FB51D4690F81D33089C03B183
:1049200000240123CDE90031CDE902240223002235
:10493000294600F0D9FC04B0002070BD70B50446D3
:10494000D0F87803C16920464031FBF7E5FE050049
:1049500004D1D4F8C823022120469047284670BDD0
:1049600070B50546D0F878030026C469217839B1BE
:10497000284600F01FF92178284600F0A3F9267098
:10498000217B39B1284600F015F9217B284600F03B
:1049900099F92673617B39B1284600F00BF9617BE8
:1049A000284600F08FF96673D5F87803C06920B106
:1049B00001F068F9D5F87803C661002070BDFEB536
:1049C0000227054601233A46394600F059F90646C2
:1049D000FF287ED00146284600F0F4FD502001F06B
:1049E00021FBD5F878130446C86106EB860000EB7E
:1049F000C60005EB400090F84A130A0603D5617023
:104A0000B0F84C03608161782846FFF759FF2070A9
:104A1000014695F81D03638903228DE80D0095F882
:104A20001C336278284600F077FC21780022284663
:104A300000F02AFC00231A460A21284600F020F93B
:104A4000FF2854D000EB800101EBC00005EB4000D3
:104A500090F84A130A0604D5E173B0F84C13618349
:104A600003E0A173B0F84C13218390F852130A06A7
:104A700004D5E173B0F85403608303E0A173B0F888
:104A800054032083A17B2846FFF71AFF6073E17B64
:104A90002846FFF715FF2073208B95F81D1302267B
:104AA0000091CDE9016095F81C33A27B617B28461B
:104AB00000F032FC608B95F81D130091CDE9016088
:104AC00095F81C33E27B217B284600F025FC002072
:104AD00000E00CE084F84C000246617B284600F0C0
:104AE000D3FB217B0022284600F0CEFB002738466E
:104AF000FEBD70472DE9F0410546D0F87803012747
:104B00000026C4694FF0040894F84C0005284AD2E6
:104B1000DFE800F00305163B4200002743E02122B6
:104B2000A16C2A7420226A746E82AE820722284603
:104B3000EA8200F062F848B9022084F84C0032E0C2
:104B400004F140012846FBF7E7FD20B101282AD0F7
:104B500084F84C8027E084F84C60A06C94F84410F2
:104B6000027991421FD194F84610827991421AD16C
:104B700094F845104279914215D1216C0068814228
:104B800011D12846FFF7B5FF0DE02846FBF72CFDB5
:104B90002846FBF7F5FC06E00021284600F00FF858
:104BA00008B984F84C603846BDE8F08170470020B1
:104BB0007047704710B500F08DFA002010BD827864
:104BC000012A07D102220274012242740022428289
:104BD0008182C2820022114600F00FB87FB51C46C8
:104BE000012501AE0023009586E80E002A462146E5
:104BF00000F07AFB04B0002070BD70B504460120BF
:104C0000A3780546012B0CD0022B09D1204600F0D9
:104C100008F9002158B1032809D0022800D1A57055
:104C200070BDA160A28125760221A17070BDA57022
:104C3000217670BD7FB51D4690F81D33089C03B1E9
:104C400000240123CDE90031CDE9022400231A46D6
:104C5000294600F049FB04B0002070BD1FB50023B9
:104C60001446CDE900310822CDE902231A46214637
:104C700000F03AFB04B0002010BDFCF7CDB90000F5
:104C800070B50546002005F54D7500BF00EB8004AA
:104C900004EBC00405EB4404E67B0A348E4201D0E9
:104CA000FF2909D1A679964201D0FF2A04D1E479DF
:104CB0009C4206D0FF2B04D0401CC0B20228E5D392
:104CC000FF2070BD0B2907D200EB8100B0F88013E4
:104CD000C1F30E01C0F880130020704730B485780E
:104CE000029C012D0FD141F0800101740621417415
:104CF00003214282B1EB122F02D140F2094100E0C0
:104D000000218182C482224630BC1946FFF775BF5C
:104D10000A8803781A440A80017808447047F8B575
:104D20000E4600F11C05009104462B464FF400721C
:104D30000021FFF7D3FF070005D13246294604F5CD
:104D40004D7000F0F3FA3846F8BD38B50D460091C5
:104D5000044600F58E734FF480720021FFF7BEFF0A
:104D6000002839D194F81C1184F8221394F81D11ED
:104D700084F82313B4F81E11A4F8241394F8201116
:104D800084F8261394F8211184F8271394F822113B
:104D900084F8281394F8231184F82913082D1BD9BB
:104DA000B4F82411A4F82A13B4F82611A4F82C138B
:104DB000B4F82811A4F82E1394F82A1184F83013AB
:104DC00094F82B1184F8311394F82C1184F83213D1
:104DD00094F82D1184F8331338BDF8B51C461646E7
:104DE000009341F4407200F58E731D460021FFF7D9
:104DF00075FF002814D16978032911D129788A1EFA
:104E0000A24200D814460021A2B2AD1C04E06B5CA3
:104E1000891C06F8013B89B29142F8D30021317018
:104E2000F8BD2DE9F84F04460125007E0B262F46DC
:104E30004FF009084FF007094FF0050B4FF00D0A2E
:104E40000C2819D2DFE800F0AF060E26313D49618B
:104E50006C7D8A9B627904F110012046FFF7FEFE0B
:104E6000022012E06179204600F097F9012804D071
:104E7000042872D0022870D095E0207CE18A00F0EE
:104E8000800021B180283BD1032020768BE0802850
:104E900014D02FE0D4F8BC03E0812379A289204606
:104EA000A168FFF79BFE0420EFE72179204600F080
:104EB00074F9012802D0052841D057E084F8188001
:104EC00071E000976379A2892046A168FFF7B2FEDE
:104ED000D4F8BC03E0810620D7E76179204600F0D2
:104EE0005CF9012806D0052807D0022808D004283C
:104EF00009D058E084F8189055E00C2020761EE088
:104F000084F818B04FE026764CE000222379114651
:104F10002046FFF763FED4F8BC03E0810820B4E725
:104F20002179204600F039F9012804D0042824D042
:104F3000052804D037E084F818A0002533E00325C5
:104F400031E000970022637911462046FFF772FE98
:104F5000D4F8BC03E0810A2097E70EE0617920468F
:104F600000F01BF9012804D00228A7D0042804D09F
:104F700019E0002584F818A015E0267613E0607E7D
:104F8000401CC0B26076022805D8204600F09CF98B
:104F90002776A77007E0D4F8C8230621204690475B
:104FA000002060760225284600F000B818BCBDE855
:104FB000E08FFEB50446012640780025374604F50B
:104FC0008E7208286CD2DFE800F004161D434A53A5
:104FD000576208212046FFF7B8FE002860D194F8F8
:104FE0002903A071677094F81D130091CDE9015059
:104FF00094F81C3319E012212046FFF7A6FE30BBBF
:10500000022033E00121204600F0E7FAF8B902203F
:10501000FFF733FE84F81C7303206070A07994F8C6
:105020001D13CDE900153B460290217980222046D0
:1050300000F072F9A07994F81D130091CDE90150A8
:1050400094F81C3361790022204600F065F927E0CE
:1050500009212046FFF763FE10BB042006E0B4F8E8
:1050600036132046FFF75BFED0B90520607017E0CD
:1050700094F83013062502E094F83113072521B186
:10508000FF232046FFF7A9FE50B9657008E094F8A9
:10509000321321B1FF232046FFF79FFE00B90026FF
:1050A0003046FEBD70B50D46040011D084F8C02313
:1050B0000020C4F87803C4F87C032046FBF7CEFA3E
:1050C0000DB1C4F8C853204600F07AF8002070BD36
:1050D000022070BD10B50024D0F8C403FCF7C3F85B
:1050E00030B1012801D0022801D0022400E00124BF
:1050F000204610BD10B5017821B190F81F13012989
:1051000009D00AE0012180F81E13D0F8C82322B18B
:105110000421904701E002210170002010BD10B56C
:10512000044600F0D1F821792046FFF7CBFD6179E4
:105130002046FFF7C7FD002084F81E03D4F8C823DB
:1051400012B1052120469047204600F0ADF803201B
:105150002070002010BD10B590F8C003012802D1C6
:105160000846FEF7F9FCC820FBF756FF002010BDEB
:10517000D0F8C403FCF771B810B50124D0F8C4030B
:10518000FCF761F820B1012805D0022803D101E025
:10519000002400E00224204610BDD0F8C403FCF730
:1051A00055B8D0F8BC13491CC0F8BC1301780B29C2
:1051B00005D1D0F87813002901D0896908477047D4
:1051C00010B5044690F8C00301281FD110484FF0D5
:1051D000A0410022C0F8C042C4F8C4030160082105
:1051E00081600321C0E903120221C0E90612FCF725
:1051F00068F920B14FF4837106A000F033FD044834
:10520000FCF71EF80146204600F03BF8002010BDD8
:10521000F40600202E2E2F5372632F757362685F81
:10522000636F6E662E630000FEB508AC94E8E00084
:105230008DE8E0000024D0F8C403FCF726F830B174
:10524000012801D0022801D0022400E001242046D8
:10525000FEBD002180F81F137047012180F81F1345
:10526000704710B50024D0F8C403FCF7A7F930B19B
:10527000012801D0022801D0022400E001242046A8
:1052800010BDC0F8BC137047D0F8C40301EB810116
:1052900000EBC10090F83B1011B180F8502001E004
:1052A00080F851200020704710B50024D0F8C403C6
:1052B000FCF78BF930B1012801D0022801D002247B
:1052C00000E00124204610BD10B50024D0F8C4032E
:1052D000FCF791F930B1012801D0022801D0022455
:1052E00000E00124204610BD2DE9FF410AAC94E8FE
:1052F000E0108DE8E0100024D0F8C403FCF702F8B9
:1053000030B1012801D0022801D0022400E001249C
:1053100004B02046BDE8F081FEB508AF97E8700004
:105320008DE87000FFF780FF0020FEBD2DE9F841F9
:1053300005460B782B704B786B704B886B800B7924
:105340002B714B796B718B79AB71CB790846EB7113
:105350000027097A2972092A54D90921ADF80010C9
:105360004BE06946FFF7D4FC4178042943D107EBB1
:10537000870101EBC70105EB4108017888F80A10A5
:10538000417888F80B10817888F80C10C17888F87B
:105390000D10017988F80E10417988F80F10817985
:1053A00088F81010C17908F10A0488F81110017A00
:1053B0002172002615E06946FFF7AAFC417805290D
:1053C0000FD108EBC60102780A7542784A758278D7
:1053D0008A75C278CA7582880A838279761C8A7631
:1053E000F6B22179B14204D96A88BDF800108A4228
:1053F000E1D87F1CFFB2022F04D26988BDF80020DB
:105400009142AED8BDE8F881FEB5022204468DF87F
:10541000002094F81F13002031B9237823B123789A
:10542000032B01D0032323702378002508270D26A2
:105430000C2B13D2DFE803F0061317ABB6469455D6
:105440005C6471A494F81E03002807D0012020702A
:10545000C820FFF712FC2046FFF703FFA2E0012956
:1054600000D122709EE06420FFF707FC2046FFF782
:1054700083FE84F81D030520207000212046FFF7DD
:105480001FFA607180212046FFF71AFA2071014649
:10549000A07994F81D230092CDE9015094F81C33B3
:1054A00080222046FFF738FFA07994F81D13009161
:1054B000CDE9015094F81C33617900222046FFF7B2
:1054C0002BFF6FE02046FFF774FD00286AD184F8B7
:1054D000205394F83303012801D007204CE02770B3
:1054E00060E0D4F8C823D2B3012120469047F6E704
:1054F00094F83913204600F07EF880BB09203BE089
:1055000094F83B034FF00A05800604D5012120469C
:1055100000F07FF818BB257044E0D4F87C13F1B19B
:10552000C4F8785394F8432304EB8001D1F8741342
:105530000B79934201D1C4F87813401C10F0FF009E
:10554000F2D0D4F87803C8B1816820468847A8B95A
:1055500006202070D4F8C82303212046904721E07C
:10556000D4F8780350B10169204688478DF80000CF
:105570009DF80000B0B90B20207013E0267011E0F8
:10558000D4F8780370B14169204688470AE0204684
:10559000FBF764F8D4F8780320B1C1682046884747
:1055A000C4F878530020FEBD002211B1D0F87C333E
:1055B00013B10222104670470123C0F87C33C0F8B3
:1055C0007413F7E70246002092F838338B4202D971
:1055D00082F820137047022070478278012A06D192
:1055E000002202740523437441828282C282002217
:1055F0001146FFF702BB8278012A06D1002202740D
:105600000923437441828282C28200221146FFF73D
:10561000F4BA8278012A06D100220274032343746B
:1056200041828282C28200221146FFF7E6BA10B59B
:105630000446FFF739FE01212046FFF78CFD0020CC
:1056400010BD000001290AD00548022906D004290E
:1056500003D0052903D1032100E001210170704727
:105660000C00002010B5044604990B9801290BD0BA
:10567000E06840F04000E060204600F01DF84FF484
:105680008030A063002010BDA16B21F48031A163A4
:10569000E168084A1140E160E16821F44011E160ED
:1056A000012803D1E06840F48010E060204600F05B
:1056B00003F8E7E7BFFFBDFF01220C4902E0521CDF
:1056C0008A420BD80369002BF9DA026942F0010221
:1056D0000261012204E0521C8A4201D90320704772
:1056E0000369DB07F7D1002070470000400D03007D
:1056F000816821F0010181600020704708B5D0F871
:10570000402422F02E020092D20405D4012909D1AE
:10571000009941F4805103E021B9009921F48051AE
:10572000C0F84014002008BD816841F0010181608B
:1057300000207047002110220261054A491C914255
:1057400001D9032070470369DB06F7D400207047B6
:10575000400D03000022202343EA81110161054925
:10576000521C8A4201D90320704703699B06F7D473
:1057700000207047400D0300D0F8080480B2704745
:1057800008B5D0F840040090C0F3414008BD40691E
:1057900000F00100704700EB4111D1F800254FF4F3
:1057A0007A73C2F381426AB1022A0BD0D1F8002584
:1057B00042F08042C1F80025D0F8100410F47F0FA9
:1057C0002ED009E0D1F8002542F08042C1F8002532
:1057D000C06A10F47F0F07D0D1F8000540F00040F8
:1057E000C1F8000500207047D1F8000520F0004006
:1057F000C1F80005D1F8000540F00040C1F80005EF
:10580000D1F8000520F40040C1F80005012002E0B5
:10581000401C9842E6D8D1F80025002AF8DBE1E7E1
:10582000D1F8000520F00040C1F80005D1F80005CE
:1058300040F00040C1F80005D1F8000520F4004018
:10584000C1F80005012002E0401C9842CAD8D1F8F6
:105850000025002AF8DBC5E72DE9F0430026DDE945
:10586000078500EB4114771EDDF82490C4F8087515
:10587000CDB1012D26D0022D15D0032D1BD0012630
:10588000D0F8187401F00F0C012101FA0CF10F434C
:10589000C0F81874816941F00071816110061ED54D
:1058A0004FF400401CE040F29D4706E0D4F80C7530
:1058B00047F4807710E040F29D67C4F80C75170636
:1058C000F4D4DDE740F22527C4F80C751706D7D5C8
:1058D000D4F80C7547F4C077C4F80C75D0E70020F5
:1058E000B8F1020F18D000214FF0FE5707EA83539A
:1058F0004FF4F04707EAC22213434FF4402202EA72
:1059000085421343C9F30A02134303430B43C4F80C
:105910000035032D03D008E04FF40031E4E7D4F85C
:10592000000540F00050C4F800053046BDE8F083A3
:10593000D0F8140480B2704730B54D780A694FF43E
:1059400080745AB10B891A44521EB2FBF3F292B220
:10595000A24204D91B0222460B6100E00122CB784F
:105960009BB30B8953430B61C3F312046FF0604385
:1059700003EAC24214438A7A4FF0C04303EA4272F8
:1059800000EB45131443C3F81045D0F80824D3F8AE
:10599000004542F3000224F00054C3F80045D3F858
:1059A0000045521C44EA4272C3F80025D3F8004572
:1059B000224A1460146824F080441460CC78002CCF
:1059C000146805D044F4004404E0FFE70B69CBE71A
:1059D00024F400441460146844F000441460126815
:1059E000C3F80025CA783ABB0A692AB3CB7933B128
:1059F000012B0FD0022B02D0032B17D10AE0D21CAF
:105A0000C36AC2F38F029BB293420FD2826942F003
:105A100020020AE0D21CD0F81034C2F38F029BB2ED
:105A2000934203D2826942F0806282610A8A93B211
:105A30004A78C96800F005F9002030BD1400002044
:105A40002DE9F041002517460446C0F8005E806B42
:105A500020F40010A063A06B20F40030A0634FF08E
:105A6000A048032B07D12046444504D0D0F80004B9
:105A700040F0040103E0D4F8000420F004012046C3
:105A8000C4F800141021FFF765FE2046FFF752FE10
:105A90000020461E07E000BF04EB4011C1F8086576
:105AA000C1F80C55401C8742F6D801212046FFF76B
:105AB00025FEC820FBF7B0FAA5616661444505D113
:105AC000802060620B48A0620B4805E04FF4007034
:105AD00060620A48A0620A48C4F80001A06940F068
